:020000040008F2
:10000000B0260020C5440800DB4408006F39080012
:10001000133C0800173D0800EB3D080000000000FD
:10002000000000000000000000000000273F080062
:10003000D33F080000000000EF3F0800A33908008C
:10004000074308002B430800DD440800DF44080094
:10005000E1440800E3440800E5440800E7440800E0
:1000600065260800E9440800D3390800273A08004B
:10007000EB440800812608001F1B0800451B0800F0
:10008000ED440800EF440800152F0800F144080073
:10009000F3440800F5440800F7440800AB3C0800AE
:1000A000F9440800FB440800673B0800FD440800D1
:1000B000FF44080001450800D9440800F8B50024B1
:1000C000DFF8100CDFF860180860DFF860180860CF
:1000D000DFF8041C08600020DFF8001C0870DFF85F
:1000E0005058286800905FF40016DFF84808066052
:1000F000DFF8EC7B5FF4000038605FF08070386000
:100100006421684600F0D0FF0028F9D03E602868DE
:1001100000904FF47A71684600F0C6FF0028F8D0CE
:1001200028680090DFF810080068C0070AD4200093
:10013000C0B2002806D14FF47A71684600F0B4FFCF
:100140000400EFE72000C0B2002811D100F024F82D
:1001500000F0FEFBDFF8EC5B280000F0D1FB28711B
:10016000280000F08DFA4FF47A713E2000F031FB48
:10017000F1BD0020C82801D2401CFBE75FF0807071
:10018000DFF8B01708600021142901D2491CFBE7F1
:10019000DFF84C1B086070472DE9F84F8CB007A8BA
:1001A000DFF89817112200F0B1FF01A8DFF89017CF
:1001B000182200F0BBFF00208DF80000DFF8784720
:1001C0002068C00740F1CC80DFF878A7DAF800702B
:1001D000DFF8745700202860DFF870B7DBF8000004
:1001E000C00007D5DBF8000030F08050CBF80000ED
:1001F0007F1E0DE0FFF7BDFF2068400708D4286888
:1002000042F21071884203D22868401C2860F3E74C
:10021000286842F21171884205D300F0A4F807A8BB
:1002200000F0CCFF9CE0206830F004002060DFF894
:10023000FC6630680078A42866D1DBF8000050F036
:100240008060CBF80000FFF794FF2068C00708D556
:10025000286842F21071884203D22868401C286046
:10026000F3E7DBF8000030F08060CBF80000206896
:1002700030F004002060286842F2107188423AD2BF
:10028000DAF80000C71B30680078804600F07DF87F
:1002900030680078801C81464846C0B2801C874286
:1002A00005D0DBF8000050F00100CBF8000030680A
:1002B000007890EA080800F068F8B9F101094846AA
:1002C000C0B20028F3D1404631680978C0B28842F4
:1002D0000AD1DFF8080A0178491C0170DFF8680AC2
:1002E0000168491C016017E03068DFF8EC1908600C
:1002F00000F059F810E0DFF8540A0168491C016069
:1003000001208DF8000007E0DFF8440A0168491C6D
:10031000016001208DF800009DF8000000281DD02C
:1003200001A800F04BFF2068C0070AD5286842F2F8
:100330001071884205D22868401C2860FFF719FF19
:10034000F1E7DFF8E405016831600068DFF888193B
:100350000860206830F00600206001E000F015F829
:100360000DB0BDE8F08F72B6DFF86809DFF8B81598
:100370000860DFF8B8150860DFF85C190860002035
:10038000DFF85819087062B67047DFF8A0050168F9
:10039000491C0160DFF83C19026811F580739A422C
:1003A00000D101607047DFF830090168491C016025
:1003B000DFF82019026811F580739A4200D10160BC
:1003C00070472DE9F84F04000D0000265FF0000B88
:1003D0004FF6FF79ADF80290FF278DF800705FF0BF
:1003E000FF3894F800A0A0788DF801005046C0B204
:1003F000092801D100204EE05046C0B2122803DA8D
:100400005046C0B2092805DADFF8DC0A00F0D6FE53
:10041000002040E0E07A0600012031061ED5594652
:10042000C9B22144097B1BF1010B5A46D2B22244C6
:10043000127B51EA0221ADF802101BF1010B594663
:10044000C9B22144097B8DF800101BF1010B5946FC
:10045000C9B22144097B0F001BF1010B71060BD5BA
:100460001BF1010B5946C9B2214491F90C10884681
:100470001BF1010B1BF1010BB1060CD55946C9B29A
:100480002144097B1BF1010B5A46D2B22244127B54
:1004900051EA022189466E709DF801102970BDF85D
:1004A000021069809DF8001029716F7185F806802F
:1004B000C0B2BDE8F28FF8B5DFF8080A0068C001E5
:1004C00009D5DFF8040A00F079FEDFF8000ADFF84A
:1004D000901A0860CDE05FF40010DFF8101A086091
:1004E000DFF80C0A00F06AFE0020DFF8781A0860D6
:1004F0000020DFF8741A086000200100C9B2082942
:1005000051DA1421DFF8642A0300DBB24B43D054E4
:10051000FF230600F6B24E43164473700600F6B28F
:100520004E431644B3700600F6B24E431644F372BF
:100530000600F6B24E43164433730600F6B24E433D
:10054000164473730600F6B24E431644B3730600A6
:10055000F6B24E431644F3730600F6B24E43164409
:1005600033740600F6B24E43164473740600F6B2B6
:100570004E431644B3740300DBB24B4313440026CE
:10058000DE7400231E00F6B2082E0ADA0600F6B268
:100590004E4316441F00FFB23E440027F7705B1C19
:1005A000F0E7401CA9E7DFF8C80904210170DFF873
:1005B000C46946605FF480018160012101730321F9
:1005C00041730FF2F52101610FF201314161DFF852
:1005D00004178161DFF85013C1614FF48071018409
:1005E00001F082F9DFF8901908600020DFF8481365
:1005F0000860FFF763FDDFF884090078C00619D5AD
:10060000DFF87C0900F0DAFDDFF8780900F0D6FDAC
:10061000DFF8740900F0D2FD00F0E2FDDFF82C03F2
:10062000016831F4803101600FF60D00DFF83019F8
:1006300008601EE0DFF8540900F0C0FD5FF0307084
:1006400004005FF0F0700500DFF844090460DFF893
:1006500044090460DFF8400905603560DFF83C09B3
:100660000460DFF83C0905600FF6C110DFF8F018F0
:100670000860F1BD80B5DFF8E8080068804701BD7B
:100680002DE9F84799B00400DFF81809056810A8AB
:10069000DFF81419212200F039FD0AA8DFF80C193F
:1006A000152200F033FD05A8DFF80419122200F02E
:1006B0002DFD6846DFF8FC18112200F027FDDFF859
:1006C0008C62306810F0406F04D010A800F076FD06
:1006D00000207BE0DFF87072002038605FF40008D3
:1006E0009448C0F80080DFF85092D9F80000C007A5
:1006F00008D4386842F21071884203D23868401C2E
:100700003860F0E742F2117A3868504508D3DFF8D4
:10071000D005C0F800800AA800F050FD002055E088
:10072000FFF727FDD9F80000400708D4386842F2E7
:100730001071884203D23868401C3860F2E7DFF855
:10074000A005C0F800803868504504D30AA800F01E
:1007500035FD00203AE07548006807783800C0B2DF
:10076000A42805D1306850F08050306000202DE082
:10077000FFF70BFEFFF717FED9F8000030F004007A
:10078000C9F800003800C0B2A5281BD1306850F06D
:10079000006030602678F61CDFF81C8822003100EB
:1007A000DFF8D407006801F034F9C8F80000D8F881
:1007B0000000002801D0012008E005A800F0FEFCA0
:1007C000002003E0684600F0F9FC00201AB0BDE804
:1007D000F0872DE9F84388B004000D0000260127BA
:1007E000DFF8C0070068009001A8DFF8D0171A22D0
:1007F00000F08CFCDFF83881D8F800000090DFF8BA
:100800003891D9F80000C0070AD53000C0B20028DE
:1008100006D14FF47A71684600F046FC0600EEE718
:100820003000C0B200281CD14848016831F0006196
:10083000016000F0F2FA0020DFF87C170860D8F8B9
:1008400000000090D9F80000C0070AD43000C0B200
:10085000002806D14FF47A71684600F025FC0600A6
:10086000F0E73000C0B2002818D1FFF795FCDFF8A0
:100870006C040078002811D0DFF85C0401688978E6
:1008800040290BD1016809792200D2B2914205D1E9
:1008900000684079002801D10020070000F058F8D6
:1008A0003000C0B2002802D001A800F087FC380058
:1008B000C0B209B0BDE8F08380B5DFF80407016875
:1008C000491C0160FFF755FC01BD000080B51D48C3
:1008D0000168491C0160DFF87C040168491C016063
:1008E000DFF8F013026811F580739A4200D10160BD
:1008F000DFF8D0060068400101D5FFF73AFC01BDE2
:1009000030B4020013789B1CA520002421001D0098
:10091000C9B2EDB2A94204D211784840521C641CFD
:10092000F4E7C0B230BC7047841500208815002061
:10093000D8150020340E0E40241600200C44080068
:100940009443080070150020641500205415002001
:10095000F0B587B0DFF884130878002801D10120B2
:10096000B6E1DFF868060268521C02600878401E93
:100970000870FFF718FDDFF860532868047820003E
:10098000C0B2122801DB0120A2E100263000C0B273
:100990002100C9B2C91C884209DA28680078694672
:1009A0003200D2B28854FFF7FEFC761CEEE76E46AA
:1009B000B57870783E2800F0698140280CD04E2828
:1009C00000F04B814F2800F04881522800F05D81F3
:1009D0006F2800F0718175E1F078012800F0BC808B
:1009E000DFF8EC050570F178417031798170F078AD
:1009F000412855D042284BD04B2807D04C282CD02A
:100A00005B2874D1DFF8CC0500F0D8FBDFF8C8050F
:100A100015F13001017300F0D1FB307900281BD1B2
:100A20001420DFF848152A00D2B242430A442B00B2
:100A3000DBB243430B44DB7C53F00403D3742A0042
:100A4000D2B242430A442B00DBB200FB03F008445D
:100A5000C07C10F0FD00D0746BE0DFF88005B17849
:100A60003031017300F0AAFB307900280FD1142037
:100A7000DFF8F8142A00D2B242430A442B00DBB25A
:100A800000FB03F00844C07C10F0F300D07450E089
:100A9000DFF84C05B1783031017300F08FFB48E08E
:100AA000DFF84005B1783031017300F087FB307911
:100AB00000281BD11420DFF8B4142A00D2B242431C
:100AC0000A442B00DBB243430B44DB7C53F00803A6
:100AD000D3742A00D2B242430A442B00DBB200FB9B
:100AE00003F00844C07C10F0FB00D07421E0DFF874
:100AF000F874B07830303873F078C0B2000900F084
:100B0000EBFA3876F07810F00F0000F0E5FA78761E
:100B10003079C0B2000900F0DFFA87F8240030799C
:100B200010F00F0000F0D8FA87F82500380000F028
:100B300045FB3079002804D1DFF8440400F03EFB87
:100B40008AE0DFF8A80400F039FBDFF878040168D8
:100B500051F0020101607FE0307900280ED00128B9
:100B600054D002280ED0032829D0052836D00628D4
:100B700048D007284ED008281DD060E0002000F0A3
:100B8000B1F869E0DFF868040178491C0170007869
:100B900000280CD1DFF85C040178491C0170007852
:100BA000002804D1DFF850040178491C0170684620
:100BB00000F098F850E0684600F094F84CE0DFF858
:100BC000AC132A00D2B21420424301EB0200407859
:100BD000102802D1684600F085F83DE01420DFF8C7
:100BE0008C132A00D2B242430A442B00DBB200FB32
:100BF00003F00844C07C50F01000D074684600F048
:100C000071F829E0684600F06DF825E0684600F0CC
:100C100069F821E0DFF8E40300F0D0FA1420DFF8EF
:100C20004C132A00D2B242430A442B00DBB200FB31
:100C300003F00844C07C10F0F300D0740CE030796D
:100C400000F0DCFADFF8B80300F0B8FADFF874035C
:100C5000016851F00401016039E005A96846FFF719
:100C6000B0FB05AA0DF10301012000F075F8BF49A2
:100C70002A00D2B21420424301EB0200407800283F
:100C800002D1002000F02EF821E020E00020010039
:100C9000C9B20A290ADA69460200D2B21144897837
:100CA000B94A0300DBB2D154401CF0E7B3480168F5
:100CB00051F0100101600AE0C248016851F480312E
:100CC000016004E0BF48016851F0080101600020A4
:100CD00007B0F0BDB00F00208C1500209F1600203B
:100CE000300E0E401FB50400FF2001008DF80810E3
:100CF00002A9A2784A70E2788A702279CA700871D3
:100D0000BD4A12784A71BB4A12788A71B84A127881
:100D10008DF80F2049788DF80010ADF80200010021
:100D20008DF8041001008DF805105FF0FF318DF88B
:100D300006108DF801006A4602A9022000F00CF8A6
:100D40001FBD0000100100209C150020741500201C
:100D500078150020841500202DE9F0438BB00500A4
:100D60000E0017005FF000096846A6492B2200F02C
:100D7000CDF91C2001F04AF90400002C04D168468A
:100D800000F01CFA002045E000200100C9B208294B
:100D900008DA0100C9B2715C0200D2B2224491713A
:100DA000401CF2E798480068206025713878A073ED
:100DB000788820823879A0747879E0747878E07344
:100DC000B87920750020A06166490868002805D11F
:100DD0000C607D480168491C01601AE00868804683
:100DE000D8F81800002804D0D8F8188019F10109A3
:100DF000F6E74846C0B2202806D2C8F81840724824
:100E00000168491C016004E0684600F0D7F9002041
:100E100000E001200BB0BDE8F08310B5524908682E
:100E2000002807D00868040008688069086020006E
:100E300001F08CF910BD0000F8B501240025614EC9
:100E4000306800041BD0714800F0B8F90027380062
:100E5000C0B204280FDA3068204208D06C492A005A
:100E6000D2B21420424301EB020000F0A7F9640063
:100E70006D1C7F1CEBE73068000C00043060FFF74E
:100E800067FD64480068C00704D50FF24500344987
:100E9000086015E048480068002811D13249086808
:100EA00000280DD00868001DFFF7EAFB002807D0D6
:100EB00055480068584908600FF239002849086011
:100EC000F1BD0000F0150020D00000202D1008001A
:100ED00080B552480168491C0160FFF75DF9504830
:100EE0001F49086001BD0000DC400800100E0E40E4
:100EF0009800002038B5304D286801F029F9040029
:100F00002000C0B2001F012829D8FFF786FF00206B
:100F100028602C48016831F0006101603D4D28686F
:100F2000C00709D53C48016842F21072914203D2D1
:100F30000168491C0160F1E73A48006842F211710A
:100F4000884208D3384800F039F92868C00702D52C
:100F5000FFF70FF9F9E7324801490860FFE731BDB3
:100F6000601500205C15002094150020B0110020B1
:100F700038140020000E0E4080150020F4150020CB
:100F800004000020704408003C150020B000002040
:100F9000040C0E40000C0E40040E0E40140C0E40CB
:100FA000140E0E40DC15002000410800AC43080080
:100FB00020440800344408007C1500205C430800ED
:100FC0006C1500205415002090150020A01500205D
:100FD00058150020A0440800840000206C00002068
:100FE000140000202C000020440000200C000020F1
:100FF000A2160020A1160020A016002048440800D8
:101000008842080088400800D815002018010020F8
:1010100028010020241600206815002098150020C3
:10102000390E080064150020780100207047F0B4E4
:101030000246106895681318506803EB5004C00707
:101040001DD54D441BE013F8017B05F8017B491EBB
:10105000F9D1A0B1B60813F8011B06F00306032E60
:1010600008BF13F8016B01EB06214942801C29449B
:1010700005D011F8016B05F8016B401EF9D1A342B0
:101080000ED013F8016B16F0030104BF13F8011B17
:10109000C91C30090F28DAD113F8010B0F30D6E73D
:1010A000F0BC02F10C00704710B40200164803684F
:1010B0001468A34203D300681368C31A05E05FF005
:1010C000FF341368E31A0068C3188B4201D2002072
:1010D00000E0012010BC70470100FF200A00D2B2DE
:1010E0000A2A03DA11F1300210000AE00A00D2B233
:1010F0000A2A06DB0A00D2B2102A02DA11F15702DC
:101100001000C0B270470000D815002062B38B07F2
:1011100008D0521E11F8013B00F8013B00F024807A
:101120008B07F6D1830740F0208000BF103A07D329
:1011300030B4B1E83810103AA0E83810F9D230BC19
:10114000530724BFB1E80810A0E8081044BF51F8C5
:10115000043B40F8043BD20724BF31F8022B20F8AF
:10116000022B44BF0B7803707047083A07D3B1E8ED
:101170000810083A40F8043B40F804CBF7D2530774
:10118000E4E730B4002513E050F8042BD30744BF44
:10119000A9F101039A18091F042942F8045BFAD245
:1011A00013468C0744BF15809B1CC90748BF1D70A0
:1011B00050F8041B0029E7D130BC704770B504001B
:1011C000250000262878002802D0761C6D1CF9E73F
:1011D00022003100DFF85806006801F0C7F970BD41
:1011E00080B5DFF850060088ADF800006A4602219D
:1011F000DFF83C06006801F0B9F901BD2DE9FE43B6
:10120000070000250026DFF8308600210800C0B264
:101210000A281BDA6846B7FBF8F230320B00DBB263
:10122000C2540A00D2B2805C302801D001200500EF
:101230002800C0B2002800D0761CB7FBF8F008FBED
:1012400010770A20B8FBF0F8491CDFE72800C0B28D
:10125000002801D1012006003000C0B200F0D6FE07
:101260000400002C08D10220DFF8D01508700FF21E
:101270008D50DFF8CC1508605FF0090931000800D7
:10128000C0B200280BD0684610F809000A00D2B29C
:10129000224402F8010CB9F10109491EEFE72200CE
:1012A0003100C9B2DFF88805006801F05FF920005D
:1012B00000F04CFFBDE8F78378B5ABB06846DFF8C7
:1012C00090151122FFF722FF19A8DFF88815482290
:1012D000FFF72CFF0124012505A8DFF87C1550221B
:1012E000FFF724FF19A8FFF769FF00263000C0B2FE
:1012F000082814DADFF86405006804420CD10020E5
:10130000050005A93200D2B20A20424301EB0200D7
:10131000FFF754FFFFF764FF6400761CE6E7280040
:10132000C0B2002802D06846FFF748FFFFF758FF19
:101330002CB070BD1FB50020010089B2802907D2F2
:101340000021DFF81C2503009BB2D154401CF3E7B9
:101350000020DFF8F014087000200100C9B28029D5
:1013600007DA0021DFF8E0240300DBB2D154401C8F
:10137000F3E7DFF8EC04DFF8EC140860DFF8E814BA
:101380000860DFF8E824DFF8E8341A6002228DF8FC
:101390000020019002918020ADF802000FF24D0074
:1013A0000390DFF88C44684601F040F82060206824
:1013B000002805D10FF24540DFF8841408600EE0E4
:1013C000DFF8B004FFF7FAFEDFF89004016851F08F
:1013D000040101600FF22120DFF8641408601FBDD2
:1013E00080B5DFF85C040068804701BDDFF8780451
:1013F0000168491C0160DFF86814026811F180037C
:101400009A4200D10160704718B591B00AA8DFF880
:1014100068141922FFF77AFE3A208DF80200202086
:101420008DF803000A208DF824000D208DF825008A
:1014300000208DF826000AA8FFF7C0FE0024200037
:10144000C0B2082833DA2000C0B20A2808DB200026
:10145000C0B20A2190FBF1F030308DF8000002E0BC
:1014600030208DF800002000C0B20A2190FBF1F27C
:1014700001FB120030308DF8010000200100C9B2DC
:1014800020290FDADFF8F4132200D2B251F832101B
:101490000200D2B2895C6A460300DBB21A441171C1
:1014A000401CEBE76846FFF789FE641CC7E7FFF7BF
:1014B00097FE12B010BD1FB56846DFF8C41391E85F
:1014C0001C0080E81C006846FFF778FE1FBD1FB5B2
:1014D0006846DFF8B01391E81C0080E81C006846FD
:1014E000FFF76CFEDFF864030178C90708D50168CF
:1014F000490849000160DFF89003FFF75FFE1FE035
:10150000016851F001010160DFF88003FFF756FE2A
:10151000002001F0BBF9012001F0B8F9022001F030
:10152000B5F9032001F0B2F9042001F0AFF905206C
:1015300001F0ACF9062001F0A9F9072001F0A6F9A5
:101540001FBD10B504002000C0B2572802D10020F2
:1015500001F0EEF92000C0B2502802D1012001F0C4
:10156000E7F92000C0B2422802D1022001F0E0F9E0
:101570002000C0B2432802D1032001F0D9F9200095
:10158000C0B2472802D1042001F0D2F92000C0B235
:10159000592802D1052001F0CBF92000C0B24F2814
:1015A00002D1062001F0C4F92000C0B2522802D1B5
:1015B000072001F0BDF910BD00B589B06846B449F7
:1015C0002322FFF7A3FD6846FFF7F8FD9F48017847
:1015D000890707D5016831F002010160AA48FFF7C9
:1015E000EDFD06E0016851F002010160A748FFF738
:1015F000E5FD09B000BD0000F8B50025994E306842
:1016000099490968884200F087802800C0B2002804
:1016100040F082803068007804002000C0B20828C2
:1016200002D00D282AD033E08848007840070AD538
:101630008448017880291DDA834902788C54017826
:10164000491C017016E07F490878002806D0087808
:10165000401E087000207C4A097850548448016874
:10166000824A914206D00168491E0160894801887A
:10167000491E01808848FFF7A1FD39E073480078D2
:10168000400705D4012005000FF29D006C49086059
:101690006C480178802905DA6B4902788C5401780E
:1016A000491C01702100C9B26148006800F047FF81
:1016B0006648007840071BD46D4801680C700168CB
:1016C000491C016073490A88521C0A80674A0368F2
:1016D00012F14007BB420BD32300DBB20D2B07D026
:1016E0000260002008806D48FFF768FD6C490860C3
:1016F00056480078C00703D52000C0B2FFF721FF8D
:101700003068401C30605648316810F180029142C8
:10171000FFF474AF306071E761490868002802D0B7
:10172000086800F015FDF1BDF8B5012500274F4E02
:101730003800C0B2305C5B493A00D2B2895C884262
:1017400001D0002005007F1C2800C0B2002803D073
:101750003800C0B20428EADB2800C0B200282FD02D
:10176000002005003800C0B23056303804007F1C1D
:10177000200040B2002823D4200040B20A281FDAFB
:1017800049480A2101FB04F101703900C9B27156C0
:1017900030390C007F1C210049B2002910D42100EF
:1017A00049B20A290CDA017861180170007808281A
:1017B00006DA3800C0B2305C0D2801D101200500E6
:1017C0002800C0B2002804D00FF219001C4908609C
:1017D00005E03648FFF7F2FC35481949086024480F
:1017E0000660F1BD80B532481549086023482E498E
:1017F000097800EBC1004068804701BD80B51348FF
:10180000016851F0004101602A48FFF7D7FC0B48FE
:101810000078FFF7F3FCFFF7E3FC00201D49088088
:1018200012481349086022480549086001BD0000BC
:10183000C4150020E22B080000CA9A3BA416002021
:10184000C0150020A316002050120020BC15002057
:101850005C44080040400800F03F0800F4150020F8
:10186000D0120020D0150020CC15002050130020ED
:10187000D4150020F401002078430800B4010020B2
:10188000AC440800B8440800A40300209C030020D6
:10189000444208009C160020380200203C02002030
:1018A000C81500205C020020A5160020640200205C
:1018B000F915080078020020012210F01F018A406B
:1018C000DFF8D41603005BB25B0941F823207047B0
:1018D000012210F01F018A40DFF8C01603005BB23E
:1018E0005B0941F8232070472DE9F0470400207878
:1018F000022804D027D3042819D00CD323E0DFF822
:10190000A0565026DFF89C765FF008087FF00809A3
:101910005FF01A0A19E0DFF890565026DFF88C764F
:101920005FF000085FF0FF395FF0300A0DE0DFF88C
:1019300080565026DFF87C765FF400287FF400297B
:101940005FF0000A01E0002061E02869C00201D5D3
:1019500000205CE0DFF860160A68012395F9280092
:1019600083401A430A6060686860A068A860207BB2
:101970002873607B6873206968616069A861A069E9
:10198000E861E0692862208CA884286950F48010FE
:10199000286128680660286847602868C0F80880C1
:1019A0002868C0F80C902868C0F820A0687B02283E
:1019B0001BD1A0692968C1F80001A069401C2968F1
:1019C000C1F8100101202968C1F80401012029682B
:1019D000C1F814010020286240F201102968C1F802
:1019E00020015FF4002029688860687B032803D108
:1019F000DFF8C8052968886095F9280040B2FFF72C
:101A000067FF95F9280040B2FFF756FF2800BDE8B0
:101A1000F087F8B505000E0017003A00310015F107
:101A20002C0000F0B8FB0400002C01D1002007E0DE
:101A3000DFF890050068002801D500F052F820007A
:101A4000F2BD80B5DFF85805DFF87C150160002194
:101A500041600021C1620021C16100218184002117
:101A60000162002101610D2180F82810DFF838158E
:101A7000DFF858250A6000224A600022CA6200226C
:101A8000CA6100228A8400220A6200220A610E22B0
:101A900081F82820DFF81815DFF834250A600022C5
:101AA0004A600022CA620022CA6100228A8400229F
:101AB0000A6200220A610F2281F82820DFF814153B
:101AC00008600FF24130DFF8F8140860DFF808050D
:101AD000FFF774FB01BD80B5DFF8E40400688047C0
:101AE00001BD10B5DFF8F444206850F0010020601B
:101AF000DFF8AC04DFF8DC1408602078C0070DD5EF
:101B0000DFF8BC0400688047DFF8D404DFF8D414A1
:101B1000096801600121FFF7C7FAEEE710BD80B543
:101B2000DFF88404DFF8C0140860DFF8C404DFF8CD
:101B3000BC140860DFF8BC040168491C016000F0B7
:101B400014F801BD80B5DFF86804DFF89C14086064
:101B5000DFF8A404DFF894140860DFF8A00401683B
:101B6000491C016000F001F801BDF8B5DFF87864A8
:101B7000306800684769306800680069000328D54C
:101B8000380326D530684068C06B316889680842E0
:101B90000ED1DFF858040168096851F001010268AC
:101BA00011600168096831F006010068016010E009
:101BB000DFF83804016809684908490000680160D5
:101BC0003068407B022804D1012031680968C1F8DF
:101BD000040130680068006980054CD5B8054AD515
:101BE0003068006B401E31680863306800688069A7
:101BF00004003068006B002819D03068406B401C2E
:101C0000316848633068406B007804003068007BBE
:101C1000012803D194FAA4F0000E04002000C0B201
:101C200031680968C86130684069804723E04FF433
:101C3000007031680968C8603068006930F40010CD
:101C40003168086104213068C06A006800F08EFBCA
:101C500030682C3000F01DFB012031680968886075
:101C6000DFF888030168096851F00201006801602B
:101C7000306840698047306800680069C00729D52E
:101C8000306800684069C00724D530680068806902
:101C900000F0FF0004003068007B012803D194FAB3
:101CA000A4F0000E04002000C0B2FF2804D1DFF829
:101CB00050030168491C01603068006A00680470C4
:101CC000CA480168096851F0040100680160306881
:101CD00080698047306800680069000757D5380779
:101CE00055D53068407B002803D03068407B012800
:101CF00027D100203168C8843068006930F4800042
:101D0000316808613068006950F40000316808618A
:101D1000BC480168491C0160AE480068407B00284F
:101D200004D13068806831684968086340F2022055
:101D300031680968C1F82001082031680968C86065
:101D400025E0AA480168096851F0040100680160B3
:101D500030680068D0F81001401C31680968C1F88B
:101D6000100130680068D0F800013168C969326834
:101D7000928C1144884205D13068C0693168096885
:101D8000C1F80001012031680968C1F81401306808
:101D900000680069C00634D5F80632D504213068E1
:101DA000C06A006800F0E2FA30682C3000F071FA86
:101DB0003068006930F40010316808614FF4007039
:101DC00031680968C1F82001102031680968C860CD
:101DD00000200500306800684069800503D4642D48
:101DE00001D26D1CF6E73068407B002809D17948A4
:101DF0000068407B002804D13068806831684968F9
:101E00000863F1BD2DE9F041724D2868C06A0028D1
:101E100004D12868C08C002800F09F8028680069E1
:101E200010F4C00F40F099802868407B002804D14E
:101E3000286880682968496848632868C08C002839
:101E400033D02868006950F4800029680861286848
:101E5000868C00272868D0F81C803A003100404664
:101E600000F08CFE2868C06929680968C1F8000183
:101E70002868C06929680968C1F808012868C08C09
:101E800029680968C1F804012868C08C29680968B4
:101E9000C1F80C01082029680968886040F2011027
:101EA00029680968C1F8200157E002212868C06A42
:101EB000006800F05BFA2868006950F40010296897
:101EC00008612868407B03282FD12868C06A4068D1
:101ED000296808632868C06A083029684863286848
:101EE000406B007804002868007B012803D194FA35
:101EF000A4F0000E0400082029680968086040204A
:101F00002968096808602000C0B229680968C861AA
:101F1000012029680968C8604FF4007029680968C1
:101F2000886028684069804717E02868C06A0830E0
:101F300029680968C1F808012868C06A40682968EA
:101F40000968C1F80C0110202968096888604FF4FD
:101F5000807029680968C1F82001286890F8280075
:101F60000D2804D011D30F2807D003D30DE00E485D
:101F700028600FE00E4828600CE0094828601748E8
:101F8000016849084900016004E01F48FFF716F99D
:101F900003482860BDE8F08100E100E080E200E055
:101FA00090130020C0084000C8130020CE18450040
:101FB00000140020FF18410010040E40010008002A
:101FC00028160020F01500200000094000400940BC
:101FD00000800940341600206803002030160020DD
:101FE0002C160020D8150020381600203C160020A2
:101FF0002016002040160020241600204416002041
:10200000481600204C1600208003002010B504461E
:10201000AFF30080204600F005F80446AFF30080DF
:10202000204610BD70B500F10F06F608F600B0426C
:1020300040D2082E04D2082602E0083000F047F80B
:10204000DFF804512C68210005D1002007E0026868
:10205000B24221D2011D08680028F8D12068291D4C
:102060000A68824222D01368B34238BF111DF7D3E9
:1020700012E093190B60801B54685C600B68186059
:102080001660096800291DBF48680028081D002047
:10209000286002F1080070BD61B10A681068A0F103
:1020A0000803B342E5D250680860EAE700F09AFD01
:1020B0000028C2D1002070BD10B5040006D0AFF3D7
:1020C0000080204600F003F8AFF3008010BD002828
:1020D00000D1704770B4A0F108021368072B2BD908
:1020E00013F0070F28D1184C616809B18A4202D257
:1020F0005160626013E0486800B3904238BF014607
:10210000F9D31BE0964203D11B180B600A4606E088
:10211000486810B1134498420ED350604A6050682A
:1021200050B11368D518854206D100262660016893
:10213000CB1813604068506070BC704708680E1878
:10214000B242DFD270BC704748150020FFF7B4BF21
:1021500010B40100FF20A04B1A0014688C4205D077
:1021600013F54074A24201D00C32F6E713F5407328
:102170009A420DD0137918000300DBB2042B03D070
:102180000300DBB2052B03D100231360002313717E
:10219000C0B210BC70472DE9F34F81B09346029C4A
:1021A0000027DFF8388298F80000102806D18C4804
:1021B000016851F001010160002068E0002C65D049
:1021C00098F80000401C88F8000098F800000E28DD
:1021D00005DB8348016851F00201016004E080489A
:1021E000016831F0020101607E48814699F80000E3
:1021F000002802D119F19009F8E7002089F80000C1
:1022000019F104000500812C03D380200700803CD5
:1022100002E0270000200400DFF8CCA1DAF800007B
:1022200028606F600020C5F8880000206968884237
:1022300008D29BF8001005EB000211721BF1010B94
:10224000401CF3E701980068002802D1019805605E
:102250000BE0019800680600D6F88800002802D03C
:10226000D6F88860F8E7C6F88850DAF8000000F081
:1022700090F8DAF80000401CCAF80000DAF8000014
:1022800000289BD10120CAF8000097E72868BDE824
:10229000FE8F10B40168002905D151490A6852F037
:1022A00004020A601FE04F4A11000B1D0468A3429C
:1022B00005D012F51063994201D09031F5E712F57F
:1022C0001062914205D1464A136853F00803136027
:1022D00009E00268D2F88820026001220A703F4AB1
:1022E00013785B1E137010BC704710B400203B497C
:1022F000087001203C4908600021080080B21028C5
:1023000008DA0122374B0C00A4B2902044431A553E
:10231000491CF2E70020010089B2402915DA0C219E
:102320002D4A00230400A4B24C43135103009BB276
:102330004B43134400241C7103009BB201FB03F1C7
:10234000114400228A60401CE5E7234827490860C1
:102350000020234908600FF269002549086010BC7D
:10236000704780B522480068804701BD10B41A4B01
:102370001A001468844205D013F54074A24201D0BB
:102380000C32F6E713F540739A4200D0117110BC7D
:10239000704710B415490A68106001220B681A7161
:1023A000144A12680B689A600A680C320A600A4A7A
:1023B0000B6812F54074A34200D10A6010BC70474C
:1023C0000D490868401E08600868002802D14FF4D3
:1023D0007A70086070470000B00C0020A61600203C
:1023E000F8150020B003002000160020041600207D
:1023F000FC150020D815002064030020012210F0F5
:102400001F018A40DFF8141403005BB25B0941F836
:1024100023207047012210F01F018A40DFF80014CA
:1024200003005BB25B0941F8232070472DE9F047B8
:1024300004002078012806D035D303281BD00ED302
:10244000042824D02FE0DFF8DC535026DFF8D873BF
:102450005FF000085FF0FF395FF01A0A25E0DFF84F
:10246000CC535026DFF8C0735FF008087FF00809EE
:102470005FF01A0A19E0DFF8B8535026DFF8B4739A
:102480005FF000085FF0FF395FF0300A0DE0DFF821
:10249000A8535026DFF8A4735FF400287FF40029C6
:1024A0005FF0000A01E0002047E02879C00701D56D
:1024B000002042E0DFF888130A68012395F9220022
:1024C00083401A430A606068686160882884A06855
:1024D000A861E068E861686850F0010068602868F9
:1024E0000660286847602868C0F808802868C0F837
:1024F0000C902868C0F820A060682968C1F8000125
:102500006068401C2968C1F8100101202968C1F8E1
:10251000040101202968C1F8140140F20110296862
:10252000C1F8200195F9220040B2FFF773FF95F939
:10253000220040B2FFF762FF2800BDE8F0877CB5BB
:1025400005000E008DF800606A46012115F10800B3
:10255000FFF721FE0400002C06D0DFF8EC02006833
:10256000002801D500F066F8200076BDF8B505001A
:102570000E0017003A00310015F10800FFF70BFEBE
:102580000400002C05D0B0480068002801D500F0F8
:1025900051F82000F2BD0020AC490860A148AC49C8
:1025A000016000218160002141610021018400213E
:1025B000816100214160082180F822109B49A54AD1
:1025C0000A6000228A6000224A6100220A840022F6
:1025D0008A6100224A600D2281F8222094499E4A95
:1025E0000A6000228A6000224A6100220A840022D6
:1025F0008A6100224A600E2281F822208E49974A81
:102600000A6000228A6000224A6100220A840022B5
:102610008A6100224A600F2281F8222090490860D6
:102620000FF2451087490860704780B585480068FB
:10263000804701BD10B5854C206850F00100206036
:102640007848874908602078C0070AD57D48006827
:10265000804784488449096801600121FEF724FD10
:10266000F1E710BD80B56F48804908608048814916
:10267000086081480168491C016000F00FF801BD45
:1026800080B56A48794908607C487A4908607C4886
:102690000168491C016000F001F801BD10B5734CE0
:1026A00020680068006900072DD52068006840692F
:1026B000000728D56F480168096851F002010068D9
:1026C000016020680068D0F81001401C216809688A
:1026D000C1F8100120680068D0F81001216849692C
:1026E0002268128C1144884205D120684069216813
:1026F0000968C1F810012068C0698047012021687D
:102700000968C1F81401206800680069C00629D56D
:10271000206800684069C00624D5042120688068CC
:102720000068FFF723FE20680830FFF7B2FD20683D
:10273000406830F40010216848604FF40070216850
:102740000968C1F82001102021680968C8604D4956
:102750000878002803D00878401E087002E04A4834
:10276000FEF72CFD10BD000010B53D4C20688068C0
:1027700000282BD020684068800227D402212068DE
:1027800080680068FFF7F2FD2068406850F4001090
:102790002168486020688068083021680968C1F8AD
:1027A000080120688068406821680968C1F80C0148
:1027B000102021680968886032480178491C01703E
:1027C0004FF4807021680968C1F82001206890F8F2
:1027D0002200082806D00D2807D00E2808D00F2880
:1027E00009D018E01148206017E01148206014E07B
:1027F0001148206011E00B48206013480068002851
:1028000008D520480078002804D1104801684908FC
:102810004900016001E00348206010BD00E100E0D4
:1028200080E200E05C140020C0084000801400201A
:10283000A4140020CE184500C8140020FF18410041
:1028400010040E4058160020F015002060160020DD
:1028500000060E4000000940004009400080094089
:10286000641600205C160020D81500206816002091
:10287000501600206C160020701600205416002000
:1028800074160020AA160020C842080030B40A219D
:10289000B24A0300DBB24B431344DB79012B08D16E
:1028A000AF4B0400E4B24C431444247A03EB84039A
:1028B00007E0AC4B0400E4B24C431444247A03EB2D
:1028C0008403A94C0500EDB254F825401C60002497
:1028D0000500EDB201FB05F1545430BC704730B433
:1028E0000A219E4A0300DBB24B431344DB79012BE0
:1028F00008D19C4B0400E4B24C431444247A03EB0B
:10290000840307E0964B0400E4B24C431444247A59
:1029100003EB8403944C0500EDB254F825401C6091
:1029200000240500EDB201FB05F1545430BC7047A2
:1029300010B48E4A894B0400E4B20A214C4303EBE5
:102940000401097A02EB8102136887490400E4B2AA
:1029500051F824104B40136010BC70472DE9FC4126
:102960004FF47A644FF4FA75601B1421B0FBF1F652
:1029700014273800C0B2002835D05FF01408404654
:1029800080B200280DD07A48006800900121684686
:10299000FEF78AFB0028F9D000F040F8B8F10108F2
:1029A000EDE73800C0B2142805D1C8216846FEF70B
:1029B0007BFB0028F9D000210800C0B20B280EDAFA
:1029C0003800C0B2421E654B8C465FFA8CFC0A2070
:1029D00000FB0CFC03EB0C004280491CECE7A41B41
:1029E00075197F1EC5E700F019F8C8216846FEF783
:1029F0005BFB0028F9D00820FFF748FF0920FFF70C
:102A000045FF0A20FFF742FF5A48016851F00101D3
:102A100001605948FEF7D2FBBDE8F38170B5002490
:102A20002000C0B20B2880F298800A254B4E20006F
:102A3000C0B26843305C012865D12000C0B2684351
:102A40003044B0F90200002804D12000C0B2FFF7E2
:102A500046FF51E02000C0B268433044B0F90200A4
:102A6000142804D12000C0B2FFF710FF44E020007A
:102A7000C0B2684330442100C9B2694331448988F7
:102A8000491E81802000C0B26843304480880028FD
:102A900032D12000C0B2684330448079012817D178
:102AA0002000C0B2FFF71BFF2000C0B268433044D3
:102AB0002100C9B269433144B1F90210D1F11401C6
:102AC00081802000C0B2684330440021817113E04E
:102AD0002000C0B2FFF7DAFE2000C0B268433044E5
:102AE0002100C9B269433144498881802000C0B2C5
:102AF000684330440121817101202100C9B205FBE6
:102B000001F5705527E02000C0B26843305C022810
:102B100021D12000C0B2684330442100C9B26943CA
:102B200031448988491E81802000C0B26843304406
:102B3000808800280FD12000C0B2FFF7F9FE2000E6
:102B4000C0B2684330442100C9B205FB01F506EB71
:102B5000050149888180641C62E770BDDC020020A9
:102B6000300C0E40340C0E40B0020020380C0E40E9
:102B7000D8150020F41500204C03002062F30F222A
:102B800062F31F42401810F0030308D0C91A1FD384
:102B9000DB0748BF00F8012D28BF20F8022D1300E5
:102BA00030B414461546103928BF20E93C00FAD845
:102BB000490728BF20E90C0048BF40F8042D8900D0
:102BC00028BF20F8022D48BF00F8012D30BC704707
:102BD000C91818BF00F8012DCB0728BF00F8012D38
:102BE00070470A0D0749086808B100207047064879
:102BF000C008C00008600549C908C900091A016079
:102C0000704700BF981600200700082000400820E9
:102C1000012210F01F018A40DFF8181603005BB292
:102C20005B0941F823207047012210F01F018A4000
:102C3000DFF8041603005BB25B0941F823207047FC
:102C40002DE9FC4105000E0017008DF80060DFF84B
:102C5000EC8598F80000102801D100203EE06A467B
:102C60000121DFF8DC050068001DFFF794FA04007D
:102C7000002C32D0DFF8CC05DFF8CC150022037829
:102C80001B01CA54027812010A44012353600278DE
:102C900012010A441572027812010A4497720278EE
:102CA00012010A44002353720278120111440022D7
:102CB000CA600178491C017098F80010491C88F816
:102CC00000100178102901D100210170DFF87C0586
:102CD0000068002801D500F003F92000BDE8F68166
:102CE0002DE9F84305000E0017009846DFF84C95D3
:102CF00099F80000102801D100203FE03A0031008F
:102D0000DFF83C050068001DFFF745FA0400002CC1
:102D100033D0DFF83005DFF83015002203781B01CF
:102D2000CA54027812010A44012353600278120146
:102D30000A441572027812010A4482F80A80027865
:102D400012010A4400235372027812011144002236
:102D5000CA600178491C017099F80010491C89F873
:102D600000100178102901D100210170DFF8DC0486
:102D70000068002801D500F0B3F82000BDE8F28318
:102D800070B51224DFF8C80401680122A240114383
:102D900001600020DFF8BC140860DFF8BC04DFF835
:102DA000A05428600021DFF89C2411700021DFF876
:102DB000AC2411700021DFF884241170DFF8A01416
:102DC000016000214160002181600021C16028680C
:102DD0000068006850F08000296809680860DFF822
:102DE0008464DFF884040068306005213000FEF759
:102DF0005BF90028F9D0DFF87404296809680861D4
:102E0000242029680968086000202968096848604A
:102E10004FF4A1702968096848624FF63560296847
:102E200009688862200040B2FFF7FEFE200040B231
:102E3000FFF7EEFE0020DFF8381408600020DFF80E
:102E4000341408600FF25510DFF82C14086070BDC0
:102E500080B5DFF824040068804701BD10B401216B
:102E60000800C0B2002815D0DFF80424106800283C
:102E700010D0DFF8000403681B78DFF8C44324682F
:102E80002468636303685B1C03601068401E106065
:102E9000491EE5E7DFF8D8030068002818D1DFF8FD
:102EA000A023042013681B689862DFF89C03DFF8F6
:102EB000AC331B781B011844807A00280ED11068AF
:102EC0000068006850F0020012681268106005E0A7
:102ED0000420DFF86C2312681268506210BC70473F
:102EE00038B5DFF87043206850F001002060DFF84B
:102EF0007453DFF87403006828602078C00708D591
:102F0000DFF874030068804701212800FEF7CCF841
:102F1000F3E731BD10B5DFF864030468DFF8600340
:102F200000680440E00506D5DFF82803016851F089
:102F30008071016030E0A0071FD5C1480168097B9E
:102F400009071AD501680968096B0268926811704F
:102F500001688968491C02689160C5490A68521E67
:102F60000A600968012917D101680968096851F0E8
:102F700002010068006801600EE0600707D5B048F4
:102F80000068007B800702D5FFF768FF04E0B148C6
:102F9000016851F00071016010BD000010B5AF492B
:102FA000A84800780A78904275D0A54C0020226885
:102FB000126850602420226812681060A24A0878C3
:102FC0000001105C002828D120680068406809785A
:102FD00009011144097A50EA0140216809684860F2
:102FE000206840684068A24908602068406808304E
:102FF000A0490860FFF732FF02212068406800689E
:10300000FFF7B4F92068C06850F006002168C86076
:103010000FF285009849086034E008780001105CE0
:1030200001282FD120680068406823681B68586019
:103030008F480B781B0113445B6803600978090112
:103040001144C968226891600068012808D120688D
:103050000068006850F0030021680968086007E014
:1030600020680068006850F0010021680968086065
:103070002068C06850F008002168C8600FF2D100D5
:103080007D4908607348006810F07F4F03D00FF24D
:1030900029107949086010BD38B5704C6A4821780C
:1030A00009010844807A002815D171480068002879
:1030B00021D1634801680968096A49071BD501687D
:1030C0000968096AC90716D50168C96831F006019F
:1030D0000068C1600FE06648006800280BD15848BE
:1030E00001680968096A490705D50168C96831F0AE
:1030F00002010068C160524D2868007B80071DD422
:103100000421286840680068FFF730F92868001D2E
:10311000FFF7BFF84F480168490849000160594866
:10312000554908602078401C207044480178491EA9
:1031300001702078102801D10020207045480068D7
:1031400010F07F4F03D00FF271004B49086031BD82
:1031500047480068002825D1394801680968096A8C
:1031600089071FD501680968096AC9071AD5016866
:10317000C96831F008010068C16036480168490833
:10318000490001603F483C49086034480178491CC7
:1031900001702A490A78521E0A700178102901D15B
:1031A000002101702B48006810F07F4F03D00FF210
:1031B000090031490860704738B5264C2068C001C5
:1031C00030D520482049027812010A4403781B01B7
:1031D0000B445B7A5B1C5372007800010844407A10
:1031E00003281BD11D480178491C017013490A7836
:1031F000521E0A700178102901D100210170104D72
:103200002868007B800709D5062128684068006887
:10321000FFF7ACF82868001DFFF73BF800200849CD
:103220000968C860206820F07F4020601548124976
:10323000086031BD00E100E080E200E0A916002056
:1032400014160020A7160020B0100020F015002052
:1032500010040E40101600202C150020A816002087
:10326000004008400C160020D81500201D1D02004B
:10327000181600201C160020081600202C400840BC
:10328000204008409D2F08008D488E49086004208A
:103290008D4908604FF480708C4908608C4A8D48D5
:1032A00010608D490868C007FBD513688B4803433D
:1032B00013608B488B4A106008688007FCD54FF478
:1032C0000070894A1060894842F2110202600A685F
:1032D0001207FCD542F21202026008680007FCD512
:1032E0008348026852F44412026008684006FCD524
:1032F000704700207F49086000207F49086041F244
:103300006F707E49086000207D49086003207D4978
:103310000860704770B57C4C764D29682068091AA2
:10332000012914D0794E3068401C3060784801681B
:1033300051F02001016077480078800707D5764872
:10334000FDF73CFF3068FDF759FFFDF749FF28689E
:1033500020607248016831F4801101607048016892
:1033600031F0040101606A48016851F08041016058
:103370000168490001D530BFFAE770BD69486A4964
:1033800008606A486A490860704780B569486A49B8
:1033900008606A486A4908606A486B4908606B4877
:1033A0006B49086000206B49086000206A4908608A
:1033B0006A486B4908605FF040506A4908606A4893
:1033C0006A4908606A486B4908607FF001006A49F1
:1033D00008600120694908605FF0F64068490860AC
:1033E000002068490860002067490860002067499C
:1033F00008606748674908600020674908606748B7
:103400006749086067486849086068486849086013
:1034100068486949086000206849086000206849D8
:103420000860684868490860002068490860002012
:10343000674908607FF07E406649086066486749D2
:1034400008604FF4E07066490860664866490860A5
:103450000020664908600020654908600020654931
:10346000086065486549086000206549086000F00B
:1034700001F801BD5FF00110624908600020624957
:10348000086003206149086041F27070604908607B
:103490006049086042F6E0605F4908605F49086083
:1034A00003205F49086040F2DC505E4908605E49D5
:1034B000086040F6B8305D4908605D4908607047B3
:1034C00073EDFC2710040E4040040E4000040E4033
:1034D00020040E4019F0370068040E400000370148
:1034E000013F072028040E4000080E4030040E4023
:1034F0001C040E40D8150020DC15002014E000E06C
:1035000018E000E010E000E0E4150020E0150020E5
:10351000F0150020BC1500209002002070040E4021
:1035200010ED00E00005FF1F54120E40010000A541
:1035300050120E4007000384000C0E40F8FFFC7B85
:10354000040C0E40F9D755BF100C0E400628AA40B7
:10355000140C0E40200C0E40240C0E40000001887C
:10356000300C0E40340C0E4000060004500C0E408F
:10357000FFF9FFFB540C0E40600C0E40640C0E4033
:10358000700C0E40800C0E40840C0E408C0C0E40D3
:10359000000001B4A00C0E40A40C0E4057FFBF0168
:1035A000000E0E4058004000040E0E40E0FFBF0128
:1035B000100E0E401F004000140E0E40200E0E4054
:1035C000240E0E4000FEBF01300E0E40340E0E40A1
:1035D000500E0E40540E0E405FFEFF01600E0E4076
:1035E000640E0E4018004000700E0E40800E0E401B
:1035F000840E0E408C0E0E40E0FF1F00A00E0E4009
:10360000A40E0E4000C0084020C0084000C2084080
:103610000CC2084010C2084004C2084008C208405A
:1036200020C208402CC2084030C2084024C20840D2
:1036300028C20840012210F01F018A409749030068
:103640005BB25B0941F823207047012210F01F0193
:103650008A40934903005BB25B0941F8232070471D
:10366000F8B50024002500200100C9B2042910DAB1
:1036700000218F4A0300DBB2D1540021894A0300A4
:10368000DBB2D15400218B4A0300DBB2D154401C81
:10369000EAE700210800C0B204281DDA864A0800C3
:1036A000C0B202EB40004078002806D183480A00EF
:1036B000D2B250F8220004430CE00800C0B202EB82
:1036C00040004078802805D17C480A00D2B250F8EA
:1036D00022000543491CDDE779480460794805600C
:1036E00079480668794807680A20FFF7AEFF0B2083
:1036F000FFF7ABFF0A20FFF79DFF0B20FFF79AFFB4
:103700000FF24D00724908607248016851F00201E1
:1037100001607148FDF752FDF1BD80B56C4800684D
:10372000804701BD02001000C0B204280EDA6248D2
:103730001300DBB200EB430040780B00DBB2984291
:1037400004D15E48D2B250F8220000E00020704759
:1037500000210800C0B204280BDA55480A00D2B292
:10376000805C002803D00FF20D00594A1060491CFC
:10377000EFE770472DE9F843554E58483060002771
:103780003800C0B2042880F28780DFF82C915448BA
:103790003900C9B209EB4101497800EB810004000E
:1037A00047483900C9B209EB4101497800EB810073
:1037B0000500DFF8FC803800C0B218F800000028CF
:1037C00068D048483060192147483A00D2B200EB2F
:1037D0008200FDF769FC00285CD03800C0B219F8FF
:1037E0001000002815D1206834493A00D2B251F8AF
:1037F000221031EA0000002805D001202D493A00AE
:10380000D2B2885418E000202A493A00D2B2885433
:1038100012E0206829493A00D2B251F82210084239
:1038200005D0012023493A00D2B2885404E0002098
:1038300020493A00D2B288541A481E493A00D2B2FE
:103840008A5C3B00DBB2C35C9A4216D03A00D2B22B
:10385000895C3A00D2B281543900C9B2405C012877
:103860000BD1012010493A00D2B288541F48006899
:103870000E493A00D2B241F8220000203900C9B204
:1038800008F8010029680D483A00D2B250F8220029
:10389000014329607F1C73E7BDE8F18300E100E08C
:1038A00080E200E0B0150020B81500201C150020B3
:1038B000A8150020B41500209801002090440800AD
:1038C000400C0E40400E0E404C0C0E404C0E0E4074
:1038D000AC150020F4150020A0010020513708008D
:1038E0003C0C0E40753708000C150020D815002040
:1038F000012210F01F018A40604903005BB25B099E
:1039000041F823207047012210F01F018A405C49D2
:1039100003005BB25B0941F82320704710B588B003
:10392000684658492022FDF701FC00200100C9B279
:1039300008290BDA69460200D2B251F82210524A25
:103940000300DBB242F82310401CEFE70024200004
:10395000C0B21D2809DA200040B2FFF7C9FF2000DD
:1039600040B2FFF7D0FF641CF1E708B010BD80B58E
:103970000020FEF7B4FF0320FEF7B1FF0120FEF7A1
:10398000AEFF0620FEF7ABFF0220FEF7A8FF0420E3
:10399000FEF7A5FF0520FEF7A2FF0720FEF776FF42
:1039A000FEE73A480168491C01603948016831F076
:1039B0008041016037490888401E08800888002837
:1039C00006D14FF47A70088033480168491C0160C1
:1039D0007047F8B53148066816F40034002C1ED044
:1039E00000273800C0B2042819DA00213800C0B21C
:1039F000FFF798FE05002C420FD0294801682943A3
:103A00000160012027493A00D2B288541F4800685B
:103A100025493A00D2B241F822007F1CE1E70A2092
:103A2000FFF771FFF1BDF8B52048066816F00704EE
:103A3000002C1ED000273800C0B2042819DA8021DB
:103A40003800C0B2FFF76EFE05002C420FD01848B8
:103A5000016829430160012012493A00D2B288541A
:103A60000A48006810493A00D2B241F822007F1C8F
:103A7000E1E70B20FFF747FFF1BD000080E100E028
:103A800080E200E0A842080000E400E0D815002031
:103A9000F0150020AC030020DC1500204C0C0E407B
:103AA000440C0E40A81500200C1500204C0E0E40B2
:103AB000440E0E40012210F01F018A4042490300CB
:103AC0005BB25B0941F823207047012210F01F010F
:103AD0008A403E4903005BB25B0941F823207047EE
:103AE00000B587B068463D491922FDF70FFB3C48F9
:103AF0003C490860FF203C49086040F201103B4906
:103B000008603B483B4908603B483C49086000204E
:103B10000100C9B2082908D20FF249012D4A030059
:103B2000DBB242F82310401CF2E701202A4908705A
:103B30001A20FFF7CAFF1A20FFF7BCFF6846FDF7FF
:103B40003DFB2F48016851F0400101600FF2C100B8
:103B50002C49086007B000BD80B52A48006880473E
:103B600001BD0000704770B500252800C0B20328D1
:103B700022D2174E244800682900C9B2715CC8409F
:103B8000C00717D521482900C9B2715C50F821003F
:103B90000400200080B20F492A00D2B2B25C51F872
:103BA0002210884701212800C0B2305681400E48BB
:103BB000016001E06D1CD8E70120074908705FF043
:103BC00080600249086070BD00E100E080E200E032
:103BD00000000020EC1400209E1600204043080046
:103BE0000017040F04800A4014800A4064800A40D1
:103BF0000100040068800A40FFFF0F0028800A408F
:103C0000F4150020501500201C800A4030800A4026
:103C10007047FEE7012210F01F018A402C49030083
:103C20005BB25B0941F823207047012210F01F01AD
:103C30008A40284903005BB25B0941F823207047A2
:103C400080B586B0684625491522FDF75FFA2448FD
:103C50002449086024482549086025202449086033
:103C6000102024490860EF202349086002202349DE
:103C700008602348184908601720FFF7D6FF17206F
:103C8000FFF7C8FF0FF28D001E4908606846FDF778
:103C900095FA1D48016851F02001016007B000BD90
:103CA00080B518480068804701BD80B51748006896
:103CB000C00606D516480168491C01600648006820
:103CC00080475FF400000349086001BD0000000068
:103CD00000E100E080E200E080160020F4430800EC
:103CE000000810000401084003C40C004400084010
:103CF0005C0008406400084068000840400008403C
:103D0000034508007C160020F415002060000840E0
:103D1000841600207047FEE738B588B068462B4906
:103D2000D1E90023C0E9002302A829491622FDF7A2
:103D3000EDF90FF2B500274908604FF400702649ED
:103D40000860264C264D2868206028212000FDF7B9
:103D5000ABF90028F9D0012200213C20FEF770FFCA
:103D600001236A4606213C20FEF7BAFF286820603E
:103D7000C8212000FDF798F90028F9D000220C2175
:103D80003C20FEF75DFF0820FEF780FD0920FEF7CE
:103D90007DFD0A20FEF77AFD012240213C20FEF73E
:103DA0004FFF002302AA14213C20FEF799FF286848
:103DB00020600C48016851F00801016009B030BD75
:103DC00080B504480068804701BD0000D044080069
:103DD000C4430800E8150020300E0E40EC1500200A
:103DE000D8150020F41500207047FEE710B52D4CC3
:103DF000206850F000402060FFF7C0FAFFF7C5FAD6
:103E0000FFF742FAFFF78AFDFFF773FAFEF76DFA44
:103E1000FEF7C1FBFDF78EFAFFF722FCFFF710FF5C
:103E2000FDF70FFEFEF7ACFFFFF75AFEFFF774FF3A
:103E3000FEF794FDFCF73FFB00F03AF800F04EF877
:103E400000F072F800F0B8F800F0C4F8FDF734FAAA
:103E5000206820F000402060134814490860FEF7F5
:103E6000DDFDFFF75AFCFEF7E0FBFFF719FFFDF75A
:103E700032FEFEF7EDFFFFF76FFEFEF772FAFDF779
:103E8000AFFAFFF79DFFFCF7F5FB00F01AF800F022
:103E90003DF800F052F800F094F800F0A0F8FFF7B9
:103EA00039FAD9E7F0150020010000A550120E40A4
:103EB00080B50948FDF782F90FF215000549086041
:103EC00001BD80B503480068804701BD00000000C7
:103ED00070470000A41500208044080080B586B01B
:103EE0006846DFF834101722FDF710F9DFF82C00D0
:103EF000016851F0800101600FF22900DFF8201005
:103F000008606846FDF75AF907B000BD80B5DFF8D4
:103F100010000068804701BDDC430800F415002054
:103F2000781600207047FEE75FF000401C490860EB
:103F30000FF211001B490860704780B519480068EE
:103F4000804701BD10B418490868401C0860174A32
:103F500008681368984220D1154B1878002804D1BE
:103F60005FF00040134C206003E05FF000400C4C19
:103F700020601878002802D10120187001E000208C
:103F8000187010680A2803D14FF4FA70106002E02C
:103F900010680A3810600020086010BC70470000EC
:103FA000300C0E40881600208C160020980300204C
:103FB000AB160020340C0E400FF2150003490860C8
:103FC000704780B501480068804701BD9016002009
:103FD0007047FEE70FF2150003490860704780B58F
:103FE00001480068804701BD941600207047FEE735
:103FF0004C454400000000000000425554544F4E10
:1040000000000000444542554700000000004C43BA
:104010004400000000000000414E54000000000079
:10402000000054494D455200000000004144430047
:1040300000000000000053440000000000000000E9
:104040000A0D496E697469616C697A6174696F6E91
:1040500020636F6D706C6574652E205479706520D7
:10406000656E2B63303020666F7220646562756701
:10407000206D656E752E20204661696C6564207424
:1040800061736B733A0A0D000A0D4E6F20737061F5
:10409000636520696E20416E745175657565417068
:1040A000706C69636174696F6E4D65737361676588
:1040B0000A0D000010B5074979441831064C7C44BC
:1040C000163404E00A68081D114488470146A142DD
:1040D000F8D110BD94010000B00100000A0D556E2A
:1040E000657870656374656420414E54206D657316
:1040F000736167652073697A650A0A0D0000000024
:10410000416E7454783A206D736720616C726561FA
:10411000647920696E2070726F67726573730A0D1F
:104120000000000053686F77206465627567206344
:104130006F6D6D616E64206C697374202020202087
:104140002020202000000000546F67676C65204C21
:1041500045442074657374202020202020202020D6
:10416000202020202020202000000000546F6767BE
:104170006C652073797374656D2074696D696E6701
:10418000207761726E696E67202020200000000099
:1041900044756D6D793320202020202020202020A0
:1041A000202020202020202020202020202020200F
:1041B0000000000044756D6D7934202020202020FF
:1041C00020202020202020202020202020202020EF
:1041D000202020200000000044756D6D79352020DE
:1041E00020202020202020202020202020202020CF
:1041F00020202020202020200000000044756D6D2C
:10420000793620202020202020202020202020203F
:10421000202020202020202020202020000000001E
:1042200044756D6D7937202020202020202020200B
:10423000202020202020202020202020202020207E
:10424000000000000A0D53797374656D2074696D68
:10425000652076696F6C6174696F6E207265706F2E
:104260007274696E672000001BCFFFFFFC12000014
:10427000B003002000000000B7CDFFFF880200005F
:10428000D4040000000000203A20756E6578706547
:1042900063746564206368616E6E656C2065766525
:1042A0006E740A0D00000000F000F0F000F0F0F075
:1042B000F0F05050503030F0F0F020F020F000409E
:1042C00040F0F0F0F01000000A0D55415254206308
:1042D0006F756E746572206F7574206F66207379C8
:1042E0006E630A0D0000000000F00EF8002801D0F7
:1042F000FFF7E0FEAFF300800020AFF30080FFF790
:1043000075FD00F00BF8FEE702490348016001204B
:10431000704700BF0000080008ED00E000F000B8A2
:104320000746384600F002F8FBE7FEE780B5AFF33A
:104330000080024A11001820ABBEFBE726000200F5
:104340004144433132207461736B20696E69746932
:10435000616C697A65640A0D000000000D0A414E27
:1043600054206578706563746564206D736720669A
:1043700061696C0A0D0000000A0A0D417661696CE2
:1043800061626C6520636F6D6D616E64733A0A0DD6
:1043900000000000416E7452783A206D65737361BD
:1043A0006765206661696C65640A0D00416E74542E
:1043B000783A2053454E2074696D656F75740A0D07
:1043C0000000000052415A4F522053414D335532A4
:1043D0002041534349492020200000005364436199
:1043E0007264207461736B2064697361626C6564CC
:1043F0000A0D000054696D65723120696E69746937
:10440000616C697A65640A0D00000000416E7452A7
:10441000783A2074696D656F75740A0D00000000AC
:10442000416E7454783A204E6F20746F6B656E0A3B
:104430000D000000416E7454783A204E6F2053599D
:104440004E430A0D000000004368616E6E656C20EB
:10445000636C6F7365640A0D000000004E6F206688
:1044600061696C6564207461736B732E00000000D9
:10447000414E542076657273696F6E3A20000000D9
:10448000414E54204150492072656164790A0D0003
:104490000000020001000000020000000400000013
:1044A0005363616E6E696E67200000000A0D4475EB
:1044B0006D6D79210A0A0D000A0D4C656420546562
:1044C00073742000AFF30080AFF30080FFF70CFFA0
:1044D000383914725E6D0000FEE7FEE7FEE7FEE786
:1044E000FEE7FEE7FEE7FEE7FEE7FEE7FEE7FEE7A4
:1044F000FEE7FEE7FEE7FEE7FEE7FEE7FEE7FEE794
:10450000FEE770471007010203004F4B0A0D000140
:1045100020024641494C0AE014414E542063686130
:104520006E6E656C20642061737369676E2000187D
:1045300063756E1AC118E0166D6573736167652047
:104540003078787820726573706F6E73652064645C
:10455000281001636C6F18E300005810016F70653C
:1045600054100B496E697469616C697A696E6720D1
:104570002130012E2E2E2C20356661696C65642E4B
:1045800020486F737420494F732073657420746FD3
:104590002048695A2E0D0A00000A0D232323206E9D
:1045A000524635313432322050726F6772616D6D10
:1045B0004620064D6F64653A206E6F4F10072066E7
:1045C000756E6374696F6E63100274792023014500
:1045D000046002024D003E944004666C6167733AC9
:1045E00018300D4C656E677468206D69736D617469
:1045F000636815400B436F6D6D616E642065727268
:104600006F7227100800556E6578706563746517C2
:10461000B00476656E740A0D14551D740A0A0D0AED
:104620000D5472616E736D697431500574696D65F6
:104630006F7574492001000080021409427574747A
:104640006F6E207461736B4D10016164791F1007E8
:104650002441080009140800480812CF08126C0809
:104660001003B9150800900812B71052B40852D8B8
:104670000852FC084320420814250A0A0D2A2A2A57
:104680002052415A4F522053414D3355322041530D
:10469000434949204C434420444556454C4F504DD6
:1046A00045021004424F415244202D70050A0D442A
:1046B0006562756783200500082008000D0A4765BC
:1046C000061404746F6F206C6F681115170D0A8B38
:1046D000200300656E2B63CC14020A496E766815C0
:1046E000F3412B11801184415131D93541363AE0E3
:1046F000419B2401316D730F25B6240376696F6CDD
:1047000061AA412022000622400A12040512010477
:1047100012080426022E11014210172113110B104A
:104720000101001402F001540101800A19247B45A3
:10473000445886732B501400E80300005353502054
:104740005065726970686572616C7320521E651BDA
:1047500021202805617474656D7074C71300F4DB43
:0E476000334F4E0B3002004F46460903E8036C
:04000005000844C5E6
:00000001FF
